S01200005450315F3137313931322E73726563A9
S11300000C9434000C943E000C943E000C943E007E
S11300100C943E000C943E000C943E000C943E0064
S11300200C943E000C943E000C943E000C943E0054
S11300300C943E000C943E000C943E000C943E0044
S11300400C943E000C943E000C943E000C943E0034
S11300500C943E000C943E000C943E000C943E0024
S11300600C943E000C943E0011241FBECFEFD8E048
S1130070DEBFCDBF0E9479000C947C000C9400007C
S11300800AD009D008D007D006D005D004D003D0B8
S113009002D001D008950AD009D008D007D006D0E4
S11300A005D004D003D002D001D008950AD009D0DD
S11300B008D007D006D005D004D003D002D001D098
S11300C008950F9303E60000000000000000000004
S11300D0000000000000000000000A95A1F70F9145
S11300E008951FE020EF1ABD1BBDCADF2BBDC8DF7A
S10F00F008950E947100FDCFF894FFCF2A
S9030000FC
